:020000040800F2
:1000000000800120B1180008CD170008D3170008A0
:10001000D9170008DF170008E517000800000000E6
:10002000000000000000000000000000EB170008C6
:10003000F91700080000000007180008151800084C
:100040000119000801190008011900080119000828
:100050000119000801190008011900080119000818
:100060000119000801190008011900080119000808
:1000700001190008011900080119000801190008F8
:10008000011900080119000801190008000000000A
:10009000000000000000000000000000011900083E
:1000A00001190008011900080119000801190008C8
:1000B00001190008011900080119000801190008B8
:1000C00001190008011900080119000801190008A8
:1000D00001190008011900080119000800000000BA
:1000E00001190008011900080119000800000000AA
:1000F00000000000000000000000000001190008DE
:100100000000000001190008011900080119000889
:1001100000000000000000000000000000000000DF
:100120000119000801190008011900080119000847
:10013000011900080000000000000000000000009D
:10014000000000000000000000000000011900088D
:100150000119000801190008011900080119000817
:10016000011900080119000800000000000000004B
:10017000000000000000000000000000000000007F
:10018000000000000119000800000000000000004D
:040190000119000849
:1001A00010B5054C237833B9044B13B10448AFF3B1
:1001B00000800123237010BD7C000020000000009F
:1001C000EC41000808B5034B1BB103490348AFF3EA
:1001D000008008BD0000000080000020EC41000805
:1001E000034613F8012B002AFBD1181A0138704777
:1001F00001F0FF01102A2BDB10F0070F08D010F8D8
:10020000013B013A8B422DD010F0070F42B3F6D1DB
:10021000F0B441EA012141EA014122F007047FF0F4
:1002200000070023F0E80256083C85EA010586EA4B
:10023000010685FA47F5A3FA87F586FA47F6A5FA87
:1002400087F68EB9EED1F0BC01F0FF0102F0070293
:1002500032B110F8013B013A83EA010313B1F8D13E
:100260000020704701387047002D06BF354603381F
:10027000073815F0010F07D1013015F4807F02BF58
:10028000013015F4C03F0130F0BC0138704700BFA9
:1002900053B94AB9002908BF00281CBF4FF0FF31ED
:1002A0004FF0FF3000F074B9ADF1080C6DE904CEE9
:1002B00000F006F8DDF804E0DDE9022304B0704741
:1002C0002DE9F047089D04468E46002B4DD18A4209
:1002D000944669D9B2FA82F252B101FA02F3C2F13C
:1002E000200120FA01F10CFA02FC41EA030E9440CD
:1002F0004FEA1C48210CBEFBF8F61FFA8CF708FBEE
:1003000016E341EA034306FB07F199420AD91CEBC5
:10031000030306F1FF3080F01F81994240F21C81F7
:10032000023E63445B1AA4B2B3FBF8F008FB10333F
:1003300044EA034400FB07F7A7420AD91CEB040474
:1003400000F1FF3380F00A81A74240F20781644444
:10035000023840EA0640E41B00261DB1D4400023C9
:10036000C5E900433146BDE8F0878B4209D9002D2D
:1003700000F0EF800026C5E9000130463146BDE8B7
:10038000F087B3FA83F6002E4AD18B4202D3824221
:1003900000F2F980841A61EB030301209E46002DD0
:1003A000E0D0C5E9004EDDE702B9FFDEB2FA82F225
:1003B000002A40F09280A1EB0C014FEA1C471FFA83
:1003C0008CFE0126200CB1FBF7F307FB131140EA6A
:1003D00001410EFB03F0884208D91CEB010103F137
:1003E000FF3802D2884200F2CB804346091AA4B2F9
:1003F000B1FBF7F007FB101144EA01440EFB00FECD
:10040000A64508D91CEB040400F1FF3102D2A64531
:1004100000F2BB800846A4EB0E0440EA03409CE7D0
:10042000C6F12007B34022FA07FC4CEA030C20FA7D
:1004300007F401FA06F31C43F9404FEA1C4900FA9D
:1004400006F3B1FBF9F8200C1FFA8CFE09FB18111A
:1004500040EA014108FB0EF0884202FA06F20BD98D
:100460001CEB010108F1FF3A80F08880884240F2DD
:100470008580A8F102086144091AA4B2B1FBF9F021
:1004800009FB101144EA014100FB0EFE8E4508D91C
:100490001CEB010100F1FF346CD28E456AD90238A1
:1004A000614440EA0840A0FB0294A1EB0E01A14286
:1004B000C846A64656D353D05DB1B3EB080261EBF4
:1004C0000E0101FA07F722FA06F3F1401F43C5E9CE
:1004D000007100263146BDE8F087C2F12003D84004
:1004E0000CFA02FC21FA03F3914001434FEA1C4746
:1004F0001FFA8CFEB3FBF7F007FB10360B0C43EA38
:10050000064300FB0EF69E4204FA02F408D91CEBE7
:10051000030300F1FF382FD29E422DD902386344E5
:100520009B1B89B2B3FBF7F607FB163341EA034185
:1005300006FB0EF38B4208D91CEB010106F1FF38D4
:1005400016D28B4214D9023E6144C91A46EA0046CB
:1005500038E72E46284605E70646E3E61846F8E65D
:100560004B45A9D2B9EB020864EB0C0E0138A3E7A6
:100570004646EAE7204694E74046D1E7D0467BE787
:10058000023B614432E7304609E76444023842E7FF
:10059000704700BF80B500AF01F0B4F900F022F859
:1005A00000F0F4F800F0C8F800F09CF800F086F8CD
:1005B0004FF40051084802F04BF80346002B05D1D8
:1005C000064800F091FB00F0B5FBF1E7044800F0AD
:1005D0008BFB01F003F8EBE700080240044200083F
:1005E0003C42000880B594B000AF07F120033022F0
:1005F0000021184603F084F907F10C0300221A6069
:100600005A609A60DA601A610023BB60294B1B6C48
:10061000284A43F080531364264B1B6C03F080532D
:10062000BB60BB6800237B60234B1B6823F4404303
:10063000214A43F4004313601F4B1B6803F44043FB
:100640007B607B6802233B620123FB6210233B63D8
:100650000223BB630023FB6310233B644FF4A873A6
:100660007B640423BB640723FB6407F12003184663
:1006700002F020F80346002B01D000F0DBFF0F232F
:10068000FB6002233B6100237B614FF48053BB611D
:100690000023FB6107F10C030221184602F082FAE5
:1006A0000346002B01D000F0C5FF00BF5037BD4608
:1006B00080BD00BF003802400070004080B500AF30
:1006C000064B074A1A60054801F073FA0346002BEF
:1006D00001D000F0AFFF00BF80BD00BF9800002038
:1006E0000030024080B500AF114B124A1A60104B27
:1006F0004FF4E1325A600E4B00229A600C4B0022FC
:10070000DA600B4B00221A61094B0C225A61084B2C
:1007100000229A61064B0022DA61054802F062FC71
:100720000346002B01D000F085FF00BF80BD00BF55
:10073000A00000200010014080B500AF114B124A0C
:100740001A60104B4FF4E1325A600E4B00229A604F
:100750000C4B0022DA600B4B00221A61094B0C2271
:100760005A61084B00229A61064B0022DA61054863
:1007700002F038FC0346002B01D000F05BFF00BF05
:1007800080BD00BFE40000200044004080B58AB076
:1007900000AF07F1140300221A605A609A60DA6011
:1007A0001A6100233B612D4B1B6B2C4A43F0040361
:1007B00013632A4B1B6B03F004033B613B6900236B
:1007C000FB60264B1B6B254A43F080031363234BCE
:1007D0001B6B03F08003FB60FB680023BB601F4BB7
:1007E0001B6B1E4A43F0010313631C4B1B6B03F08E
:1007F0000103BB60BB6800237B60184B1B6B174A6F
:1008000043F002031363154B1B6B03F002037B6081
:100810007B6800222021124801F032FF4FF4005380
:100820007B614FF40413BB610023FB6107F11403E8
:1008300019460C4801F088FD20237B610123BB6130
:100840000023FB6100233B6207F1140319460448AF
:1008500001F07AFD00BF2837BD4680BD0038024058
:10086000000002400008024080B584B000AF03469B
:100870000A46FB711346BB71A5233B73BB797B739F
:1008800007F10C014FF0FF330222034802F0F7FB9F
:1008900000BF1037BD4680BDE400002080B582B0A7
:1008A00000AF7F23FB71F91D4FF0FF330122034896
:1008B00002F0E5FB00BF0837BD4680BDE400002024
:1008C00080B588B000AFF860B9607A60FF23FB6143
:1008D000174B1B689A68164B1B6842F001029A601E
:1008E0000023BB610FE0FA68BB6913441B787B618E
:1008F00007F11403012219460D4801F076F9F86159
:10090000BB690133BB61BA69BB689A42EBD3FA6930
:100910007968084800F0E8F9FA697B689A4201D1E1
:10092000002300E0012318462037BD4680BD00BFEC
:10093000980000207842000880B400AF10231846C9
:10094000BD465DF8047B704780B483B000AF064BB2
:100950001B689BB2C3F30B03FB80FB8818460C3764
:10096000BD465DF8047B7047002004E080B588B088
:1009700000AF0023FB773B46184601F0C3FB3B6901
:10098000FB77FB7F18462037BD4680BD80B483B01F
:1009900000AF78607B68B3F1005F05D37B680B4ADA
:1009A000934201D800230AE07B68B3F1006F05D3BE
:1009B0007B68074A934201D8002300E001231846D0
:1009C0000C37BD465DF8047B704700BF00800120F6
:1009D000FFFF070880B58AB000AF03460A46FB71E7
:1009E0001346BB71BB79082B01D9FF2335E0FB7996
:1009F000FF2B02D0FB79072B2ED8FB79FF2B02D1DE
:100A000001233B6112E0FB79C3F1080387F827302B
:100A1000BA7997F827309A4202D997F82730BB71F4
:100A200000233B61FB79BB61BB79FB6101237B61E7
:100A300001F05AF902233B6207F10C0207F110039F
:100A40001146184601F0EEFA034687F8263001F009
:100A50006DF997F8263000E0FF2318462837BD4689
:100A600080BDB0B586B000AFF860B9607A60002391
:100A7000FB7501F039F900233B6114E0BA683B696A
:100A8000D118FA683B6913441B78DBB200221C467C
:100A9000154622462B46002001F0D2F80346FB758E
:100AA0003B6901333B613A697B689A42E6D301F0C6
:100AB0003DF9FB7D18461837BD46B0BDB0B586B0D0
:100AC00000AFF860B9607A600023FB7501F00CF9A3
:100AD00000233B6114E0BA683B69D118FA683B69AE
:100AE00013441B78DBB200221C46154622462B46D7
:100AF000002001F0A5F80346FB753B6901333B611B
:100B00003A697B689A42E6D301F010F9FB7D1846FA
:100B10001837BD46B0BD000080B584B000AF0346B5
:100B2000FB710B46BB7113467B71444BFB607B79B9
:100B3000002B25D001F00AF900BF414BDB6803F41C
:100B40008033002BF9D1FB681B6823F00042FB685F
:100B50001A60FB681B6843F47F02FB681A60FB683D
:100B60001B6843F00202FB681A6000BF344BDB686D
:100B700003F48033002BF9D101F004F9002358E08D
:100B8000BB79012B26D101F0E1F800BF2C4BDB68CB
:100B900003F48033002BF9D1FB681B6823F000427B
:100BA000FB681A60FB681B68FA791204D2431A408A
:100BB000FB681A60FB681B6843F00202FB681A605E
:100BC00000BF1F4BDB6803F48033002BF9D101F029
:100BD000D9F82DE0BB79022B2AD101F0B7F800BF7C
:100BE000174BDB6803F48033002BF9D1FB681B68DB
:100BF00043F00042FB681A60FB681B6823F47F0225
:100C0000FB681A60FB681B68FA7912041A43FB68D8
:100C10001A60FB681B6843F00202FB681A6000BFA1
:100C2000074BDB6803F48033002BF9D101F0AAF8FD
:100C3000002318461037BD4680BD00BF143C02405B
:100C4000003C024080B582B000AF0023FB801A4B0D
:100C50003B6001F07BF800BF184BDB6803F4803386
:100C6000002BF9D13B681B681B0C9BB223F4FF439C
:100C700023F07F039AB2FB881343FB803B681B6819
:100C80001B0C9BB2DBB29AB2FB881343FB803B6820
:100C90001B6843F002023B681A6000BF074BDB6829
:100CA00003F48033002BF9D101F06CF8FB8818466F
:100CB0000837BD4680BD00BF143C0240003C0240E6
:100CC00080B582B000AF786039603B689AB24FF06F
:100CD000FF337968034802F0D2F900BF0837BD46F8
:100CE00080BD00BFE40000200FB480B596B000AF17
:100CF00007F164037B6007F108037A68396E1846D0
:100D000002F01CFE07F108031846FFF769FA0346D4
:100D10009AB207F108014FF0FF33054802F0AFF92E
:100D200000BF5837BD46BDE8804004B0704700BFE3
:100D3000A000002080B582B000AF0023FB71C82264
:100D40000021354802F0DCFD4FF0FF33012232492B
:100D5000324802F026FA304B1B78FB71FB799AB2CD
:100D60004FF0FF332E492D4802F01BFA2A4B5B78D7
:100D7000513B0B2B4AD801A252F823F0AD0D0008CD
:100D8000B50D0008BD0D0008C50D0008CD0D00080B
:100D9000D50D0008DD0D0008E50D0008ED0D00087B
:100DA000F50D0008FD0D0008050E00081A4800F0BA
:100DB0003BF82FE0184800F07FF82BE0164800F0D1
:100DC000B5F827E0144800F0F9F823E0124800F0E5
:100DD0003DF91FE0104800F0A3F91BE00E4800F0B9
:100DE00007FA17E00C4800F08DFA13E00A4800F00B
:100DF000D9FA0FE0084800F055FB0BE0064800F078
:100E000099FB07E0044800F09FFB03E00548FFF76B
:100E10006BFF00BF93E700BF28010020E400002023
:100E200029010020AC42000880B586B000AF786090
:100E30001D48FFF759FF7B681B7801337B617B6995
:100E4000043B7A6813441B683B617B69043B3A6945
:100E500019467868FFF734FD0346002B1AD1134872
:100E6000FFF742FF7B681B7801211846FFF7FCFC67
:100E7000FFF762FD0346FB73FB7B1946FB7B1A46BB
:100E80000B48FFF731FF07F10F0301211846FFF769
:100E900017FF04E00748FFF727FFFFF7FFFC00BF3D
:100EA0001837BD4680BD00BFE4420008104300086B
:100EB000344300085443000880B584B000AF786024
:100EC0001648FFF711FF7B681B780133FB60FB6856
:100ED000043B7A6813441B68BB60FB68043BBA6838
:100EE00019467868FFF7ECFC0346002B0DD10C483F
:100EF000FFF7FAFE7B681B780C211846FFF7B4FC5D
:100F00000C210848FFF7DCFE04E00748FFF7ECFE81
:100F1000FFF7C4FC00BF1037BD4680BD7443000816
:100F20001043000800000020A443000880B586B0EC
:100F300000AF78601D48FFF7D7FE7B681B78013350
:100F40007B617B69043B7A6813441B683B617B6966
:100F5000043B3A6919467868FFF7B2FC0346002B58
:100F60001AD11348FFF7C0FE7B681B780221184690
:100F7000FFF77AFCFFF7E8FC0346FB81FB89194683
:100F8000FB891A460B48FFF7AFFE07F10E0302215B
:100F90001846FFF795FE04E00748FFF7A5FEFFF7A8
:100FA0007DFC00BF1837BD4680BD00BFC4430008AC
:100FB00010430008F4430008A443000880B586B03D
:100FC00000AF78601D48FFF78FFE7B681B78013308
:100FD0007B617B69043B7A6813441B683B617B69D6
:100FE000043B3A6919467868FFF76AFC0346002B10
:100FF0001AD11348FFF778FE7B681B780221184648
:10100000FFF732FCFFF7B2FC0346FB73FB7B19468C
:10101000FB7B1A460B48FFF767FE07F10F03012120
:101020001846FFF74DFE04E00748FFF75DFEFFF7A7
:1010300035FC00BF1837BD4680BD00BF1444000812
:101040001043000844440008A443000880B588B059
:1010500000AF78600023FB610023FB730123BB73A7
:101060002948FFF741FE7B681B780133BB61BB69F0
:10107000043B7A6813441B687B61BB69043B7A6953
:1010800019467868FFF71CFC0346002B32D11F4835
:10109000FFF72AFE7B681B7802211846FFF7E4FB66
:1010A0007B68D3F80230FB61F9691948FFF71CFE31
:1010B000F869FFF76BFC0346002B11D107F10F0312
:1010C00001211846FFF7FCFDFB6943F00103FB61BA
:1010D000FB693B610F48FFF707FE3B6998470EE04D
:1010E0000D48FFF701FE07F10E0301211846FFF737
:1010F000E7FD04E00948FFF7F7FDFFF7CFFB00BF6E
:101100002037BD4680BD00BF68440008104300087A
:1011100094440008B0440008D8440008A4430008E0
:1011200080B586B000AF78600023FB732A48FFF7D4
:10113000DBFD7B681B7801337B617B69043B7A684C
:1011400013441B683B617B69043B3A691946786824
:10115000FFF7B6FB0346002B35D12048FFF7C4FD4F
:101160007B681B7802211846FFF77EFB7B68023301
:101170001B7819467B6803331B781A461848FFF71B
:10118000B3FD01222021174801F07AFA7B6802336F
:101190001A787B6803331B7819461046FFF71AFC50
:1011A0000346FB73002220210E4801F069FAFB7B05
:1011B00019460D48FFF798FD07F10F030121184666
:1011C000FFF77EFD04E00948FFF78EFDFFF766FBA1
:1011D00000BF1837BD4680BDFC440008104300081E
:1011E000304500080000024068450008A44300089C
:1011F00080B588B000AF78600023FB770023FB73D5
:101200000023BB777B681B787B777B689B793B7778
:101210007B68D3F80230BB617B7F7A6813441B780C
:10122000BB773048FFF760FD7B681B7801337B613B
:101230007B69043B7A6813441B683B617B69043B10
:101240003A6919467868FFF73BFB0346002B40D10B
:101250002548FFF749FD7B681B7802211846FFF7F8
:1012600003FBB9692148FFF73FFDB869FFF78EFB23
:101270000346002B21D11E48FFF736FD0122202115
:101280001C4801F0FDF97B6807333A7FB9691846BD
:10129000FFF7E7FB0346FB7300222021154801F00E
:1012A000EFF9FB7B19461448FFF71EFD07F10F030A
:1012B00001211846FFF704FD10E01048FFF714FD68
:1012C0000123FB7307F10F0301211846FFF7F8FC18
:1012D00004E00B48FFF708FDFFF7E0FA00BF2037F6
:1012E000BD4680BD9045000810430008C045000879
:1012F000E845000800000240104600083446000897
:10130000A443000880B586B000AF78600023FB736B
:101310002048FFF7E9FC7B681B7801337B617B6920
:10132000043B7A6813441B683B617B69043B3A6960
:1013300019467868FFF7C4FA0346002B20D11648F7
:10134000FFF7D2FC7B681B7801211846FFF78CFA67
:101350007B68023318787B6803331B7800221946B8
:10136000FFF7DAFB0346FB73FB7B19460B48FFF7DD
:10137000BBFC07F10F0301211846FFF7A1FC04E0B5
:101380000748FFF7B1FCFFF789FA00BF1837BD46E1
:1013900080BD00BF60460008104300089846000862
:1013A000A443000880B588B000AF78600023FB77C5
:1013B0000023FB737B689B79BB777B68D3F8023093
:1013C000BB613048FFF790FC7B681B7801337B6181
:1013D0007B69043B7A6813441B683B617B69043B6F
:1013E0003A6919467868FFF76BFA0346002B40D13B
:1013F0002548FFF779FC7B681B7801211846FFF729
:1014000033FAB9692148FFF76FFCB869FFF7BEFAF4
:101410000346002B21D11E48FFF766FC0122202144
:101420001C4801F02DF97B680733BA7FB96918466B
:10143000FFF744FB0346FB7300222021154801F00F
:101440001FF9FB7B19461448FFF74EFC07F10F0309
:1014500001211846FFF734FC10E01048FFF744FC68
:101460000123FB7307F10F0301211846FFF728FC46
:1014700004E00B48FFF738FCFFF710FA00BF2037F5
:10148000BD4680BDC046000810430008F046000875
:101490001847000800000240404700086047000865
:1014A000A443000880B586B000AF78600023FB81BC
:1014B0001C48FFF719FC7B681B7801337B617B6953
:1014C000043B7A6813441B683B617B69043B3A69BF
:1014D00019467868FFF7F4F90346002B18D1124833
:1014E000FFF702FC7B681B7801211846FFF7BCF967
:1014F000FFF7A8FB0346FB81FB8919460B48FFF762
:10150000F3FB07F10E0302211846FFF7D9FB04E0B5
:101510000748FFF7E9FBFFF7C1F900BF1837BD46E1
:1015200080BD00BF8C4700081043000840470008FA
:10153000A443000880B483B000AF786000BF0C37CC
:10154000BD465DF8047B704780B586B000AF78601B
:101550000023FB731D48FFF7C7FB7B681B78013333
:101560007B617B69043B7A6813441B683B617B6940
:10157000043B3A6919467868FFF7A2F90346002B45
:101580001BD11348FFF7B0FB7B681B78012118467D
:10159000FFF76AF9012200210020FFF7BDFA034698
:1015A000FB73FB7B19460B48FFF79EFB07F10F030C
:1015B00001211846FFF784FB04E00748FFF794FB7E
:1015C000FFF76CF900BF1837BD4680BDC84700085B
:1015D0001043000898460008A443000880B584B072
:1015E00000AF0F48FFF780FB0E4B1B68FB60F968EC
:1015F0000D48FFF779FBFB683B603B6883F3088885
:1016000000BF0A4B1B68BB60BB687B6079680848F9
:10161000FFF76AFB7B68984700BF1037BD4680BD67
:1016200000480008008000082C48000804800008DA
:101630004C48000880B400AF72B600BFFEE700005F
:1016400080B582B000AF00237B60104B5B6C0F4A0B
:1016500043F4804353640D4B5B6C03F480437B6025
:101660007B6800233B60094B1B6C084A43F08053A6
:101670001364064B1B6C03F080533B603B680720F0
:1016800000F064FA00BF0837BD4680BD0038024054
:1016900080B485B000AF78607B681B680B4A9342CA
:1016A0000DD10023FB600A4B1B6B094A43F48053A6
:1016B0001363074B1B6B03F48053FB60FB6800BF95
:1016C0001437BD465DF8047B704700BF0030024010
:1016D0000038024080B58CB000AF786007F11C0381
:1016E00000221A605A609A60DA601A617B681B688F
:1016F000324A93422DD10023BB61314B5B6C304A9F
:1017000043F0100353642E4B5B6C03F01003BB617A
:10171000BB6900237B612A4B1B6B294A43F0010301
:101720001363274B1B6B03F001037B617B694FF451
:10173000C063FB6102233B6200237B620323BB6225
:101740000723FB6207F11C0319461E4800F0FCFD4D
:1017500030E07B681B681C4A93422BD100233B611D
:10176000174B1B6C164A43F400331364144B1B6C69
:1017700003F400333B613B690023FB60104B1B6BA0
:101780000F4A43F0010313630D4B1B6B03F001037E
:10179000FB60FB680C23FB6102233B6200237B623E
:1017A0000023BB620723FB6207F11C0319460548AF
:1017B00000F0CAFD00BF3037BD4680BD00100140BB
:1017C00000380240000002400044004080B400AFF6
:1017D000FEE780B400AFFEE780B400AFFEE780B460
:1017E00000AFFEE780B400AFFEE780B400AF00BFFB
:1017F000BD465DF8047B704780B400AF00BFBD46B6
:101800005DF8047B704780B400AF00BFBD465DF853
:10181000047B704780B500AF00F0C6F800BF80BD04
:1018200080B586B000AF7860144A154BD31A7B613F
:101830007B693B61134B1B68002B02D1114B124A91
:101840001A60104B1A687B6813443A699A4207D2AF
:1018500002F02CF803460C221A604FF0FF3309E027
:10186000084B1B68FB60074B1A687B681344054AEA
:101870001360FB6818461837BD4680BD0080012004
:1018800000040000F00100202802002080B400AF16
:10189000064BD3F88830054A43F47003C2F8883009
:1018A00000BFBD465DF8047B704700BF00ED00E05F
:1018B000DFF834D00D480E490E4A002302E0D45818
:1018C000C4500433C4188C42F9D30B4A0B4C002388
:1018D00001E013600432A242FBD3FFF7D7FF01F00F
:1018E000EBFFFEF757FE704700800120000000204C
:1018F0007C000020D44800087C0000202802002042
:10190000FEE7000080B500AF0E4B1B680D4A43F4A4
:10191000007313600B4B1B680A4A43F48063136027
:10192000084B1B68074A43F480731360032000F0E0
:101930000DF9002000F008F8FFF782FE002318469A
:1019400080BD00BF003C024080B582B000AF78602F
:10195000124B1A68124B1B7819464FF47A73B3FB7B
:10196000F1F3B2FBF3F3184600F017F90346002B2E
:1019700001D001230EE07B680F2B0AD80022796882
:101980004FF0FF3000F0EDF8064A7B68136000234B
:1019900000E0012318460837BD4680BD0C0000203A
:1019A000140000201000002080B400AF064B1B780C
:1019B0001A46064B1B681344044A136000BFBD4619
:1019C0005DF8047B704700BF14000020F401002084
:1019D00080B400AF034B1B681846BD465DF8047B1E
:1019E000704700BFF401002080B485B000AF78607C
:1019F0007B6803F00703FB600C4BDB68BB60BA68D5
:101A00004FF6FF031340BB60FB681A02BB68134329
:101A100043F0BF6343F40033BB60044ABB68D36048
:101A200000BF1437BD465DF8047B704700ED00E051
:101A300080B400AF044BDB681B0A03F007031846B1
:101A4000BD465DF8047B704700ED00E080B483B0D4
:101A500000AF03463960FB7197F90730002B0ADBB2
:101A60003B68DAB20C4997F907301201D2B20B4445
:101A700083F800230AE03B68DAB20849FB7903F0F7
:101A80000F03043B1201D2B20B441A7600BF0C378D
:101A9000BD465DF8047B704700E100E000ED00E02A
:101AA00080B489B000AFF860B9607A60FB6803F079
:101AB0000703FB61FB69C3F10703042B28BF042361
:101AC000BB61FB690433062B02D9FB69033B00E0D1
:101AD00000237B614FF0FF32BB6902FA03F3DA4364
:101AE000BB681A407B699A404FF0FF317B6901FA6D
:101AF00003F3D9437B680B40134318462437BD4694
:101B00005DF8047B7047000080B582B000AF78605C
:101B10007B68013BB3F1807F01D301230FE00A4AC8
:101B20007B68013B53600F214FF0FF30FFF78EFFC2
:101B3000054B00229A60044B07221A6000231846C6
:101B40000837BD4680BD00BF10E000E080B582B020
:101B500000AF78607868FFF747FF00BF0837BD46E1
:101B600080BD80B586B000AF0346B9607A60FB7374
:101B700000237B61FFF75CFF78617A68B968786958
:101B8000FFF78EFF024697F90F3011461846FFF710
:101B90005DFF00BF1837BD4680BD80B582B000AF85
:101BA00078607868FFF7B0FF034618460837BD46EF
:101BB00080BD80B582B000AF78607B68002B01D11A
:101BC00001230EE07B685B79DBB2002B05D17B68DB
:101BD00000221A717868FFF75BFD7B6801225A7159
:101BE000002318460837BD4680BD80B487B000AFDB
:101BF000F860B9607A6000233B61FB6802225A7189
:101C000000237B610AE07B699B00BA681A44FB6889
:101C10001B6812681A607B6901337B617A697B6893
:101C20009A42F0D3FB681B681B683B61FB6801228A
:101C30005A713B6918461C37BD465DF8047B7047F6
:101C400080B586B000AFF860B960C7E90023012312
:101C5000FB75234B1B7E012B01D102233BE0204B64
:101C600001221A764CF2503000F09CF80346FB75C6
:101C7000FB7D002B2BD1FB68002B05D13B7819464F
:101C8000B86800F047F916E0FB68012B05D13B88E6
:101C90001946B86800F01AF90DE0FB68022B05D16F
:101CA0003B681946B86800F0EFF804E0D7E9002374
:101CB000B86800F0B7F84CF2503000F073F8034603
:101CC000FB75084B1B69074A23F001031361044BA2
:101CD00000221A76FB7D18461837BD4680BD00BF2E
:101CE000F8010020003C024080B483B000AF002324
:101CF000FB710B4B1B69002B0BDA094B094A5A602D
:101D0000074B094A5A60064B1B69002B01DA012375
:101D1000FB71FB7918460C37BD465DF8047B7047B4
:101D2000003C024023016745AB89EFCD80B400AF92
:101D3000054B1B69044A43F0004313610023184616
:101D4000BD465DF8047B7047003C024080B400AFA4
:101D5000094B5B6903F00103002B07D0064B074AD0
:101D60009A60054B064A9A60002300E0012318465A
:101D7000BD465DF8047B7047003C02403B2A1908D1
:101D80007F6E5D4C80B400AF054B5B69044A43F045
:101D90000103536100231846BD465DF8047B70477C
:101DA000003C024080B584B000AF78600023FB6047
:101DB0001A4B0022DA61FFF70BFEF86010E07B6837
:101DC000B3F1FF3F0CD07B68002B07D0FFF700FE7C
:101DD0000246FB68D31A7A689A4201D2032319E0BB
:101DE0000F4BDB6803F48033002BE8D10C4BDB682E
:101DF00003F00103002B02D0094B0122DA60084BEB
:101E0000DB6803F4F973002B03D000F0A5F801237D
:101E100000E0002318461037BD4680BDF8010020C1
:101E2000003C024080B485B000AFF860C7E90023F1
:101E3000144B1B69134A23F440731361114B1B6944
:101E4000104A43F4407313610E4B1B690D4A43F073
:101E500001031361FB683A681A60BFF36F8F00BF1C
:101E6000D7E900014FF000024FF000030A00002301
:101E7000F968043113460B6000BF1437BD465DF8A6
:101E8000047B7047003C024080B483B000AF7860B0
:101E900039600D4B1B690C4A23F4407313610A4BE4
:101EA0001B69094A43F400731361074B1B69064A17
:101EB00043F0010313617B683A681A6000BF0C3776
:101EC000BD465DF8047B7047003C024080B483B09F
:101ED00000AF78600B467B800D4B1B690C4A23F4E6
:101EE000407313610A4B1B69094A43F48073136101
:101EF000074B1B69064A43F0010313617B687A882C
:101F00001A8000BF0C37BD465DF8047B704700BFE8
:101F1000003C024080B483B000AF78600B46FB7099
:101F20000C4B1B690B4A23F440731361094B094A9C
:101F30001B691361074B1B69064A43F001031361D8
:101F40007B68FA781A7000BF0C37BD465DF8047BD9
:101F5000704700BF003C024080B400AF2F4BDB68ED
:101F600003F01003002B08D02D4BDB6943F0100366
:101F70002B4AD361294B1022DA60284BDB6803F02F
:101F80002003002B08D0264BDB6943F00803244ACA
:101F9000D361224B2022DA60204BDB6803F0400340
:101FA000002B08D01E4BDB6943F004031C4AD361AD
:101FB0001A4B4022DA60194BDB6803F08003002BD8
:101FC00008D0174BDB6943F00203154AD361134B6A
:101FD0008022DA60114BDB6803F48073002B09D098
:101FE0000F4BDB6943F001030D4AD3610B4B4FF4F8
:101FF0008072DA60094BDB6803F00203002B08D023
:10200000074BDB6943F02003054AD361034B0222EF
:10201000DA6000BFBD465DF8047B7047003C0240BB
:10202000F801002080B584B000AF786039600123EA
:10203000FB730023BB60314B1B7E012B01D10223BC
:1020400058E02E4B01221A764CF25030FFF7AAFED0
:102050000346FB73FB7B002B48D13B684FF0FF32FC
:102060001A607B681B68012B15D17B681B69DAB28B
:102070007B685B681946104600F068F84CF25030F7
:10208000FFF790FE0346FB731D4B1B691C4A23F0B0
:102090000403136128E07B689B68BB601CE07B68DD
:1020A0001B69DBB21946B86800F074F84CF2503086
:1020B000FFF778FE0346FB73114B1B69104A23F0B0
:1020C000FA031361FB7B002B03D03B68BA681A60EC
:1020D0000AE0BB680133BB607B68DA687B689B6899
:1020E0001344BA689A42DAD300F0E8F8034B0022AE
:1020F0001A76FB7B18461037BD4680BDF8010020DC
:10210000003C024080B582B000AF78607B680F224F
:102110001A6000F097F803461A467B689A6000F050
:102120009DF803461A467B681A6100F07BF8034667
:102130001A467B681A7600F0B1F803461A467B68A7
:102140005A6100BF0837BD4680BD000080B483B02F
:1021500000AF03463960FB710D4B1B690C4A23F439
:10216000407313610A4B1B69094A43F0040313616E
:10217000074B1A69FB791B021343054A43F480336A
:10218000136100BF0C37BD465DF8047B704700BF8C
:10219000003C024080B485B000AF78600B46FB7015
:1021A0000023FB60FB78002B02D10023FB6010E0D2
:1021B000FB78012B03D14FF48073FB6009E0FB78BF
:1021C000022B03D14FF40073FB6002E04FF4407325
:1021D000FB60134B1B69124A23F440731361104BCD
:1021E0001A690F49FB6813430B610D4B1B690C4ABD
:1021F00023F0F80313610A4B1A697B68DB00134371
:10220000074A43F002031361054B1B69044A43F478
:102210008033136100BF1437BD465DF8047B7047FF
:10222000003C024080B400AF054B5B69DBB223F099
:102230001F03DBB21846BD465DF8047B704700BF44
:10224000003C024080B400AF034B1B889BB2184691
:10225000BD465DF8047B7047163C024080B483B0F5
:1022600000AFAA23FB710C4B1B78DBB2CC2B02D145
:10227000CC23FB7109E0084B1B78DBB2AA2B02D1FF
:10228000AA23FB7101E05523FB71FB7918460C373B
:10229000BD465DF8047B7047153C024080B400AF3A
:1022A000054B1B78DBB203F00C03DBB21846BD46CE
:1022B0005DF8047B704700BF143C024080B400AF5F
:1022C000204B1B6803F40073002B17D01D4B1B68B9
:1022D0001C4A23F4007313601A4B1B68194A43F419
:1022E00000631360174B1B68164A23F400631360E6
:1022F000144B1B68134A43F400731360114B1B68A3
:1023000003F48063002B17D00E4B1B680D4A23F497
:10231000806313600B4B1B680A4A43F480531360BD
:10232000084B1B68074A23F480531360054B1B6856
:10233000044A43F48063136000BFBD465DF8047B2C
:10234000704700BF003C024080B489B000AF7860A5
:10235000396000237B6100233B610023BB610023C4
:10236000FB6159E10122FB6902FA03F37B613B68DF
:102370001B687A6913403B613A697B699A4240F075
:1023800048813B685B6803F00303012B05D03B6881
:102390005B6803F00303022B30D17B689B68BB6151
:1023A000FB695B00032202FA03F3DB43BA691340C3
:1023B000BB613B68DA68FB695B0002FA03F3BA6948
:1023C0001343BB617B68BA699A607B685B68BB61D9
:1023D0000122FB6902FA03F3DB43BA691340BB61D4
:1023E0003B685B681B0903F00102FB6902FA03F317
:1023F000BA691343BB617B68BA695A603B685B6822
:1024000003F00303032B17D07B68DB68BB61FB6918
:102410005B00032202FA03F3DB43BA691340BB619A
:102420003B689A68FB695B0002FA03F3BA691343DD
:10243000BB617B68BA69DA603B685B6803F00303E1
:10244000022B23D1FB69DA087B68083253F822306B
:10245000BB61FB6903F007039B000F2202FA03F341
:10246000DB43BA691340BB613B681A69FB6903F03F
:1024700007039B0002FA03F3BA691343BB61FB69CC
:10248000DA087B680832B96943F822107B681B6858
:10249000BB61FB695B00032202FA03F3DB43BA6909
:1024A0001340BB613B685B6803F00302FB695B00A0
:1024B00002FA03F3BA691343BB617B68BA691A6015
:1024C0003B685B6803F44033002B00F0A2800023DC
:1024D000FB60574B5B6C564A43F480435364544B48
:1024E0005B6C03F48043FB60FB68524AFB699B080A
:1024F000023352F82330BB61FB6903F003039B00F6
:102500000F2202FA03F3DB43BA691340BB617B6815
:10251000494A934219D07B68484A934213D07B685A
:10252000474A93420DD07B68464A934207D07B6866
:10253000454A934201D1042308E0072306E0032320
:1025400004E0022302E0012300E00023FA6902F024
:10255000030292009340BA691343BB613549FB699A
:102560009B080233BA6941F82320384B9B68BB6152
:102570003B69DB43BA691340BB613B685B6803F4AA
:102580008013002B03D0BA693B691343BB612F4A08
:10259000BB6993602D4BDB68BB613B69DB43BA6968
:1025A0001340BB613B685B6803F40013002B03D04E
:1025B000BA693B691343BB61244ABB69D360234BAF
:1025C0005B68BB613B69DB43BA691340BB613B6835
:1025D0005B6803F40033002B03D0BA693B691343F3
:1025E000BB611A4ABB695360184B1B68BB613B69EE
:1025F000DB43BA691340BB613B685B6803F480331B
:10260000002B03D0BA693B691343BB610F4ABB6916
:102610001360FB690133FB61FB690F2B7FF6A2AEF0
:1026200000BF00BF2437BD465DF8047B704700BF84
:10263000003802400038014000000240000402401F
:1026400000080240000C024000100240003C014023
:1026500080B485B000AF78600B467B807B681A69D8
:102660007B881340002B02D00123FB7301E0002381
:10267000FB73FB7B18461437BD465DF8047B70473F
:1026800080B483B000AF78600B467B8013467B70CC
:102690007B78002B03D07A887B689A6103E07B8883
:1026A0001A047B689A6100BF0C37BD465DF8047B55
:1026B0007047000080B586B000AF78607B68002B63
:1026C00001D1012367E27B681B6803F00103002B43
:1026D00075D0884B9B6803F00C03042B0CD0854B02
:1026E0009B6803F00C03082B12D1824B5B6803F448
:1026F0008003B3F5800F0BD17E4B1B6803F40033CE
:10270000002B5BD07B685B68002B57D1012342E232
:102710007B685B68B3F5803F06D1764B1B68754AD2
:1027200043F4803313601DE07B685B68B3F5A02F32
:102730000CD1704B1B686F4A43F4802313606D4BC0
:102740001B686C4A43F4803313600BE0694B1B68D1
:10275000684A23F480331360664B1B68654A23F490
:10276000802313607B685B68002B13D0FFF730F980
:10277000386108E0FFF72CF902463B69D31A642B55
:1027800001D9032307E25B4B1B6803F40033002BE2
:10279000F0D014E0FFF71CF9386108E0FFF718F9F2
:1027A00002463B69D31A642B01D90323F3E1514B51
:1027B0001B6803F40033002BF0D100E000BF7B68FE
:1027C0001B6803F00203002B63D04A4B9B6803F0A5
:1027D0000C03002B0BD0474B9B6803F00C03082B1A
:1027E0001CD1444B5B6803F48003002B16D1414B92
:1027F0001B6803F00203002B05D07B68DB68012B0C
:1028000001D00123C7E13B4B1B6823F0F8027B6832
:102810001B69DB00374913430B603AE07B68DB68D8
:10282000002B20D0344B01221A60FFF7D1F8386119
:1028300008E0FFF7CDF802463B69D31A022B01D915
:102840000323A8E12B4B1B6803F00203002BF0D0FD
:10285000284B1B6823F0F8027B681B69DB002549C5
:1028600013430B6015E0244B00221A60FFF7B0F809
:10287000386108E0FFF7ACF802463B69D31A022B37
:1028800001D9032387E11B4B1B6803F00203002BD4
:10289000F0D17B681B6803F00803002B36D07B68FF
:1028A0005B69002B16D0154B01221A60FFF790F8D8
:1028B000386108E0FFF78CF802463B69D31A022B17
:1028C00001D9032367E10B4B5B6F03F00203002B7D
:1028D000F0D01BE0094B00221A60FFF779F838614D
:1028E0000EE0FFF775F802463B69D31A022B07D9B1
:1028F000032350E10038024000004742800E474267
:10290000884B5B6F03F00203002BEAD17B681B68E6
:1029100003F00403002B00F097800023FB75814B2C
:102920001B6C03F08053002B0FD10023BB607D4B49
:102930001B6C7C4A43F0805313647A4B1B6C03F08E
:102940008053BB60BB680123FB75774B1B6803F4A6
:102950008073002B18D1744B1B68734A43F4807347
:102960001360FFF735F8386108E0FFF731F80246E9
:102970003B69D31A022B01D903230CE16A4B1B6874
:1029800003F48073002BF0D07B689B68012B06D189
:10299000644B1B6F634A43F0010313671CE07B68C1
:1029A0009B68052B0CD15F4B1B6F5E4A43F0040301
:1029B00013675C4B1B6F5B4A43F0010313670BE02B
:1029C000584B1B6F574A23F001031367554B1B6F7E
:1029D000544A23F0040313677B689B68002B15D0CF
:1029E000FEF7F6FF38610AE0FEF7F2FF02463B69A8
:1029F000D31A41F28832934201D90323CBE0494BE9
:102A00001B6F03F00203002BEED014E0FEF7E0FF93
:102A100038610AE0FEF7DCFF02463B69D31A41F257
:102A20008832934201D90323B5E03E4B1B6F03F07C
:102A30000203002BEED1FB7D012B05D1394B1B6C22
:102A4000384A23F0805313647B689B69002B00F0A5
:102A5000A180344B9B6803F00C03082B5CD07B688F
:102A60009B69022B41D1314B00221A60FEF7B0FF67
:102A7000386108E0FEF7ACFF02463B69D31A022B2F
:102A800001D9032387E0274B1B6803F00073002B59
:102A9000F0D17B68DA697B681B6A1A437B685B6AE2
:102AA0009B011A437B689B6A5B08013B1B041A432A
:102AB0007B68DB6A1B061B4913434B601B4B0122DF
:102AC0001A60FEF785FF386108E0FEF781FF0246D5
:102AD0003B69D31A022B01D903235CE0114B1B681D
:102AE00003F00073002BF0D054E0104B00221A606A
:102AF000FEF76EFF386108E0FEF76AFF02463B69A9
:102B0000D31A022B01D9032345E0064B1B6803F0BF
:102B10000073002BF0D13DE07B689B69012B07D14E
:102B2000012338E000380240007000406000474256
:102B30001B4B5B68FB607B689B69012B28D0FB68A3
:102B400003F480027B68DB699A4221D1FB6803F0C1
:102B50003F027B681B6A9A421AD1FA6847F6C07333
:102B600013407A68526A9201934211D1FB6803F4D0
:102B700040327B689B6A5B08013B1B049A4207D189
:102B8000FB6803F070627B68DB6A1B069A4201D027
:102B9000012300E0002318461837BD4680BD00BF62
:102BA0000038024080B584B000AF786039607B683F
:102BB000002B01D10123CCE0684B1B6803F0070315
:102BC0003A689A420CD9654B3A68D2B21A70634B94
:102BD0001B6803F007033A689A4201D00123B8E06A
:102BE0007B681B6803F00203002B20D07B681B6806
:102BF00003F00403002B05D0594B9B68584A43F45B
:102C0000E05393607B681B6803F00803002B05D03A
:102C1000534B9B68524A43F460439360504B9B680C
:102C200023F0F0027B689B684D4913438B607B68FF
:102C30001B6803F00103002B44D07B685B68012B09
:102C400007D1474B1B6803F40033002B19D1012334
:102C50007FE07B685B68022B03D07B685B68032B9B
:102C600007D13F4B1B6803F00073002B09D10123F0
:102C70006FE03B4B1B6803F00203002B01D10123E3
:102C800067E0374B9B6823F003027B685B6834493D
:102C900013438B60FEF79CFEF8600AE0FEF798FE97
:102CA0000246FB68D31A41F28832934201D90323CA
:102CB0004FE02B4B9B6803F00C027B685B689B002A
:102CC0009A42EBD1254B1B6803F007033A689A42FE
:102CD0000CD2224B3A68D2B21A70204B1B6803F018
:102CE00007033A689A4201D0012332E07B681B68EF
:102CF00003F00403002B08D0194B9B6823F4E05227
:102D00007B68DB68164913438B607B681B6803F0A4
:102D10000803002B09D0124B9B6823F460427B68A8
:102D20001B69DB000E4913438B6000F021F802465B
:102D30000B4B9B681B0903F00F030A49CB5C22FA7B
:102D400003F3094A1360094B1B681846FEF7FCFDA4
:102D5000002318461037BD4680BD00BF003C02402E
:102D600000380240784800080C00002010000020C5
:102D70002DE9B04F94B000AF00237B640023FB64C7
:102D800000233B640023BB64794B9B6803F00C0376
:102D9000082B0DD0082B00F2E180002B02D0042B71
:102DA00003D0DBE0734BBB64DBE0734BBB64D8E068
:102DB0006F4B5B6803F03F037B646D4B5B6803F410
:102DC0008003002B63D06A4B5B689B090022BB63C6
:102DD000FA63BB6BC3F308033B6300237B63D7E950
:102DE0000C4522462B464FF000004FF000015901E0
:102DF00041EAD261500102460B462146511A39611F
:102E0000294663EB01037B614FF000024FF00003A2
:102E1000D7E904AB59468B01514643EA91635146C9
:102E20008A015146B2EB0108594663EB01094FF0A4
:102E300000024FF000034FEAC90343EA58734FEA18
:102E4000C80290469946234618EB0303BB602B4605
:102E500049EB0303FB604FF000024FF00003D7E99A
:102E6000024529464B02214643EAD15321464A02F4
:102E7000104619467B6C0022BB62FA62D7E90A232E
:102E8000FDF706FA02460B461346FB6458E0384B42
:102E90005B689B09002218461146C0F308033B6299
:102EA00000237B62D7E9088942464B464FF0000079
:102EB0004FF00001590141EAD261500102460B4630
:102EC0004146B2EB010A494663EB010B4FF00002A9
:102ED0004FF000034FEA8B1343EA9A634FEA8A12DA
:102EE000B2EB0A0463EB0B054FF000024FF0000356
:102EF000EB0043EA5473E20014461D464346E318D0
:102F00003B604B4645EB03037B604FF000024FF004
:102F10000003D7E9004529468B02214643EA915335
:102F200021468A02104619467B6C0022BB61FA6179
:102F3000D7E90623FDF7ACF902460B461346FB64BE
:102F40000B4B5B681B0C03F0030301335B003B641A
:102F5000FA6C3B6CB2FBF3F3BB6402E0054BBB6461
:102F600000BFBB6C18465037BD46BDE8B08F00BFF0
:102F7000003802400024F40000127A0080B400AF50
:102F8000034B1B681846BD465DF8047B704700BFC5
:102F90000C00002080B500AFFFF7F0FF0246054BA4
:102FA0009B689B0A03F007030349CB5C22FA03F3F7
:102FB000184680BD003802408848000880B500AF40
:102FC000FFF7DCFF0246054B9B685B0B03F0070332
:102FD0000349CB5C22FA03F3184680BD0038024057
:102FE0008848000880B582B000AF78607B68002B0D
:102FF00001D101233FE07B6893F83D30DBB2002B29
:1030000006D17B68002283F83C207868FEF762FBDB
:103010007B68242283F83D207B681B68DA687B6824
:103020001B6822F40052DA60786800F0CBF97B6804
:103030001B681A697B681B6822F490421A617B68DE
:103040001B685A697B681B6822F02A025A617B68F8
:103050001B68DA687B681B6842F40052DA607B68A0
:1030600000221A647B68202283F83D207B6820229E
:1030700083F83E20002318460837BD4680BD80B542
:103080008AB002AFF860B9603B601346FB80002352
:103090007B61FB6893F83D30DBB2202B7CD1BB68B1
:1030A000002B02D0FB88002B01D1012375E0FB68C7
:1030B00093F83C30012B01D102236EE0FB68012222
:1030C00083F83C20FB6800221A64FB68212283F805
:1030D0003D20FEF77DFC7861FB68FA889A84FB68E6
:1030E000FA88DA84FB689B68B3F5805F08D1FB68D7
:1030F0001B69002B04D10023FB61BB68BB6103E0AB
:10310000BB68FB610023BB61FB68002283F83C20A5
:103110002AE03B6800937B6900228021F86800F078
:10312000E2F80346002B01D0032336E0FB69002BB5
:103130000BD1BB691B881A46FB681B68C2F30802E7
:103140005A60BB690233BB6107E0FB691A78FB6810
:103150001B685A60FB690133FB61FB68DB8C9BB227
:10316000013B9AB2FB68DA84FB68DB8C9BB2002BD4
:10317000CFD13B6800937B6900224021F86800F0C2
:10318000B2F80346002B01D0032306E0FB6820229F
:1031900083F83D20002300E0022318462037BD4677
:1031A00080BD80B58AB002AFF860B9603B6013465D
:1031B000FB8000237B61FB6893F83E30DBB2202B61
:1031C00040F08C80BB68002B02D0FB88002B01D123
:1031D000012384E0FB6893F83C30012B01D10223EA
:1031E0007DE0FB68012283F83C20FB6800221A6422
:1031F000FB68222283F83E20FB6800221A63FEF758
:10320000E7FB7861FB68FA889A85FB68FA88DA85BB
:10321000FB689B68B3F5805F08D1FB681B69002BD6
:1032200004D10023FB61BB68BB6103E0BB68FB61A9
:103230000023BB61FB68002283F83C2043E03B682D
:1032400000937B6900222021F86800F04CF80346C7
:10325000002B01D0032342E0FB69002B0CD1FB685B
:103260001B685B689BB2C3F308039AB2BB691A8000
:10327000BB690233BB611FE0FB689B68B3F5805FED
:1032800007D0FB689B68002B0AD1FB681B69002BE9
:1032900006D1FB681B685B68DAB2FB691A7008E04C
:1032A000FB681B685B68DBB203F07F03DAB2FB6983
:1032B0001A70FB690133FB61FB68DB8D9BB2013B3C
:1032C0009AB2FB68DA85FB68DB8D9BB2002BB6D126
:1032D000FB68202283F83E20002300E002231846EA
:1032E0002037BD4680BD80B590B000AFF860B960B2
:1032F0003B601346FB7150E0BB6CB3F1FF3F4CD019
:10330000BB6C002B07D0FEF763FB02463B68D31A69
:10331000BA6C9A4241D2FB681B680C33BB62BB6A31
:1033200053E8003F7B627B6A23F4D073FB63FB6846
:103330001B680C33FA6B7A633B63396B7A6B41E839
:103340000023FB62FB6A002BE5D1FB681B6814338A
:103350007B617B6953E8003F3B613B6923F00103DC
:10336000BB63FB681B681433BA6B3A62FB61F96993
:103370003A6A41E80023BB61BB69002BE5D1FB68D9
:10338000202283F83D20FB68202283F83E20FB6842
:10339000002283F83C2003230FE0FB681B681A68B7
:1033A000BB681340BA689A420CBF01230023DBB20A
:1033B0001A46FB799A429FD0002318464037BD46F3
:1033C00080BD00002DE9B04FC0B000AFC7F8F400D9
:1033D000D7F8F4301B681B6923F44050D7F8F43059
:1033E000D968D7F8F4301A6840EA01031361D7F8B6
:1033F000F4309A68D7F8F4301B691A43D7F8F430E0
:103400005B691A43D7F8F430DB691343C7F8F83027
:10341000D7F8F4301B68DB6823F4164121F00C0167
:10342000D7F8F4301A68D7F8F8300B43D360D7F8E0
:10343000F4301B685B6923F44070D7F8F430996965
:10344000D7F8F4301A6840EA01035361D7F8F43032
:103450001A688F4B9A4205D0D7F8F4301A688D4B12
:103460009A4204D1FFF7AAFDC7F8FC0003E0FFF77A
:1034700091FDC7F8FC00D7F8F430DB69B3F5004FD5
:1034800040F00C81D7F8FC300022C7F8E830C7F8CC
:10349000EC20D7E93A4522462B469118B9655B41A5
:1034A000FB65D7E91623214612EB0108294643EBB9
:1034B00001094FF000024FF000034FEAC90343EA4D
:1034C00058734FEAC80290469946234618EB030307
:1034D000C7F8E0302B4649EB0303C7F8E430D7F8D0
:1034E000F4305B680022C7F8D830C7F8DC20D7E991
:1034F00036120B46DB183B65134642EB03037B6534
:10350000D7E91423D7E93801FCF7C2FE02460B467F
:10351000614BA3FB02235B091C01D7F8FC3000229E
:10352000C7F8D030C7F8D420D7E9348942464B4693
:103530009118B9645B41FB64D7E91223414612EB51
:10354000010A494643EB010B4FF000024FF0000324
:103550004FEACB0343EA5A734FEACA0292469B46AC
:1035600043461AEB0303C7F8C8304B464BEB030343
:10357000C7F8CC30D7F8F4305B680022C7F8C03009
:10358000C7F8C420D7E930120B46DB183B6413465A
:1035900042EB03037B64D7E91023D7E93201FCF740
:1035A00077FE02460B4611463B4BA3FB01235B090A
:1035B000642202FB03F3CB1ADB0003F13202364B29
:1035C000A3FB02235B095B0003F4F8731C44D7F8E8
:1035D000FC300022C7F8B830C7F8BC20D7E92E89E4
:1035E00042464B469118B9635B41FB63D7E90E2312
:1035F00041465118396349464B417B634FF0000205
:103600004FF00003D7E90CAB5946CB00514643EAD3
:1036100051735146CA0010461946034642469B184C
:10362000C7F8B0304B460A4642EB0303C7F8B43044
:10363000D7F8F4305B680022C7F8A830C7F8AC2090
:10364000D7E92A120B46DB18BB62134642EB030391
:10365000FB62D7E90A23D7E92C01FCF719FE0246E1
:103660000B460D4BA3FB02135B09642101FB03F323
:10367000D31ADB003233084AA2FB03235B0903F0B1
:103680000702D7F8F4301B6822449A6005E100BFB6
:1036900000100140001401401F85EB51D7F8FC30A9
:1036A0000022C7F8A030C7F8A420D7E928894246ED
:1036B0004B46911839625B417B62D7E9082341464A
:1036C0005418494643EB01054FF000024FF0000348
:1036D000EB0043EA5473E20014461D464346E318E8
:1036E000C7F898304B4645EB0303C7F89C30D7F832
:1036F000F4305B680022C7F89030C7F894204FF090
:1037000000024FF00003D7E9244529468B002146EB
:1037100043EA917321468A00D7E92601FCF7B8FDF8
:1037200002460B46604BA3FB02235B091C01D7F842
:10373000FC300022C7F88830C7F88C20D7E92289EE
:1037400042464B469118B9615B41FB61D7E90623BC
:1037500041465118396149464B417B614FF00002A7
:103760004FF00003D7E904AB5946CB00514643EA7A
:1037700051735146CA0010461946034642469B18EB
:10378000C7F880304B460A4642EB0303C7F8843043
:10379000D7F8F4305B680022BB67FA674FF000028D
:1037A0004FF00003D7E91E8949468B00414643EAA2
:1037B000917341468A00D7E92001FCF769FD024672
:1037C0000B46394BA3FB02135B09642101FB03F396
:1037D000D31A1B013233344AA2FB03235B0903F0E3
:1037E000F0031C44D7F8FC3000223B677A67D7E926
:1037F0001C8942464B469118B9605B41FB60D7E992
:10380000022341465118396049464B417B604FF0D5
:1038100000024FF00003D7E900AB5946CB005146F8
:1038200043EA51735146CA001046194603464246C0
:103830009B18BB664B460A4642EB0303FB66D7F870
:10384000F4305B6800223B667A664FF000024FF06E
:103850000003D7E9188949468B00414643EA917332
:1038600041468A00D7E91A01FCF712FD02460B46D1
:103870000D4BA3FB02135B09642101FB03F3D31A75
:103880001B013233084AA2FB03235B0903F00F023A
:10389000D7F8F4301B6822449A6000BF07F58077A0
:1038A000BD46BDE8B08F00BF1F85EB51014B1868C6
:1038B000704700BF1800002070B50D4D0D4C641B03
:1038C000A4100026A64209D10B4D0C4C00F08EFC32
:1038D000641BA4100026A64205D170BD55F8043B18
:1038E00098470136EEE755F8043B98470136F2E772
:1038F000CC480008CC480008CC480008D048000854
:1039000002440346934200D1704703F8011BF9E7D4
:1039100000B59BB0009104916FF0004105910291B8
:1039200005490391694600F06FF8009B00221A7068
:103930001BB05DF804FB00BF0802FFFF13460A46F8
:10394000014602480068FFF7E3BF00BF18000020EF
:103950002DE9F0478E689E4282460C4690461F46EF
:1039600038D88A8912F4906F32D025680969A5EB9E
:103970000109656905EB450505EBD57501334B4438
:103980006D109D4238BF1D46530531D5294600F0C4
:1039900063FB064650B90C23CAF80030A38943F0F4
:1039A0004003A3814FF0FF30BDE8F08721694A460C
:1039B00000F0BEFAA38923F4906343F08003A3814F
:1039C000266165614E44A5EB09052660A5603E466B
:1039D000BE4200D93E4620683246414600F0B6FA63
:1039E000A3689B1BA3602368334423600020DBE7AC
:1039F0002A4600F0A5FB06460028E1D12169504681
:103A000000F0BEFAC7E700002DE9F04F98468B8919
:103A10001B069DB007460D4614460ED50B6963B9CB
:103A2000402100F019FB2860286120B90C233B607D
:103A30004FF0FF30D1E040236B6100230993202336
:103A40008DF82930CDF80C803023DFF8A8818DF86F
:103A50002A304FF0010923469A4613F8012B0AB188
:103A6000252AF9D1BAEB040B0BD05B462246294636
:103A70003846FFF76DFF013000F0AA80099A5A44DA
:103A800009929AF80030002B00F0A28000234FF03A
:103A9000FF32CDE905230AF1010A049307938DF85B
:103AA00053301A935446052214F8011B5148FCF771
:103AB0009FFB049AD8B9D00644BF20238DF8533019
:103AC000110744BF2B238DF853309AF800302A2B6E
:103AD00015D0079A544600204FF00A0C214611F8E1
:103AE000013B303B092B4ED9B0B1079214E0A0EB5B
:103AF000080309FA03F313430493A246D2E7039B96
:103B0000191D1B680391002BBBBF5B4242F00202F0
:103B100007930793B8BF049223782E2B0CD16378B8
:103B20002A2B35D1039B1A1D1B680392002BB8BFAB
:103B30004FF0FF3302340593DFF8C8A02178032249
:103B40005046FCF755FB40B14023A0EB0A0003FAB6
:103B500000F0049B03430134049314F8011B26482E
:103B60008DF828100622FCF743FB002838D0234BA1
:103B70001BBB039B073323F0070308330393099B05
:103B80003344099367E70CFB02320C460120A5E79A
:103B900000230134059319464FF00A0C204610F813
:103BA000012B303A092A03D9002BC5D00591C3E770
:103BB0000CFB012104460123F0E703AB00932A46E6
:103BC0000F4B04A93846AFF30080421C0646D6D1FD
:103BD000AB895B063FF52CAF09981DB0BDE8F08FAF
:103BE00003AB00932A46064B04A9384600F07AF846
:103BF000EBE700BF904800089A480008000000006A
:103C000051390008964800082DE9F04716469946B4
:103C10008A680B69DDF820809342B8BF1346336091
:103C200091F8432007460C460AB1013333602368FC
:103C3000990642BF336802333360256815F00605E4
:103C400006D104F1190AE36832689B1AAB4226DCFC
:103C500094F84320131E226818BF012392062BD428
:103C600004F1430249463846C04701301ED023685C
:103C7000E568326803F00603042B08BFAD1AA36899
:103C800022690CBF25EAE57500259342C4BF9B1A43
:103C9000ED1800261A34B5421AD1002008E001239D
:103CA000524649463846C047013003D14FF0FF30F5
:103CB000BDE8F0870135C6E7E1185A1C302081F8CD
:103CC0004300224494F8451082F843100233C7E7BA
:103CD0000123224649463846C0470130E6D0013626
:103CE000D9E700002DE9FF470F7E0C9D782F914604
:103CF00080460C469A4601F1430207D8622F0AD843
:103D0000002F00F0D880582F00F0A38004F1420566
:103D100084F842703AE0A7F16303152BF6D801A1AD
:103D200051F823F07D3D0008913D00080D3D00084D
:103D30000D3D00080D3D00080D3D0008913D0008B7
:103D40000D3D00080D3D00080D3D00080D3D00082B
:103D50009D3E0008C13D00087F3E00080D3D000863
:103D60000D3D0008BF3E00080D3D0008C13D0008A4
:103D70000D3D00080D3D0008873E00082B681A1D08
:103D80001B682A6004F1420584F842300123A3E055
:103D900020682968060601F104030AD50E682B6025
:103DA000002E03DA2D23764284F843305E480A233E
:103DB00019E00E682B6010F0400F18BF36B2EFE725
:103DC0002B682068191D2960010601D51E6802E0D4
:103DD0004606FBD51E8854486F2F0CBF08230A23C4
:103DE000002184F843106568A560002DA2BF2168FA
:103DF00021F0040121600EB9002D4DD01546B6FB0F
:103E0000F3F103FB1167C75D05F8017D3746BB423F
:103E10000E46F4D9082B0BD12368DE0708D5236999
:103E200061689942DEBF302305F8013C05F1FF359A
:103E3000521B2261CDF800A04B4603AA2146404602
:103E4000FFF7E2FE01304CD14FF0FF3004B0BDE887
:103E5000F087354881F845702968236851F8046B6C
:103E600029601D0614D5DF0744BF43F020032360FB
:103E70001EB9236823F0200323601023B0E72368D2
:103E800043F0200323607823284884F84530E3E793
:103E9000590648BFB6B2E6E71546BBE72B68266869
:103EA0006169181D286035061B6801D5196002E09C
:103EB0007006FBD51980002323611546BAE72B68ED
:103EC0001A1D2A601D68626800212846FCF790F9D7
:103ED00008B1401B606063682361002384F84330AD
:103EE000A8E723692A4649464046D0470130ABD06F
:103EF00023689B0713D4E068039B9842B8BF184619
:103F0000A4E70123324649464046D04701309BD0C2
:103F10000135E36803995B1AAB42F2DCEBE700255D
:103F200004F11906F5E700BFA1480008B2480008EF
:103F30000A44914200F1FF3300D1704710B511F8E7
:103F4000014B03F8014F9142F9D110BD884210B5E1
:103F500001EB020402D98442234607D8431EA14242
:103F600008D011F8012B03F8012FF8E702440146AD
:103F70008A4200D110BD13F8014D02F8014DF7E758
:103F800037B5002944D051F8043C0190002BA1F131
:103F90000404B8BFE41800F013F91E4A019813682E
:103FA00033B96360146003B0BDE8304000F00EB96F
:103FB000A34208D9256861198B4201BF19685B6863
:103FC00049192160EDE71A465B680BB1A342FAD9A3
:103FD00011685518A5420BD1246821445418A342F6
:103FE0001160E0D11C685B68536021441160DAE71E
:103FF00002D90C230360D6E7256861198B4204BF00
:1040000019685B68636004BF491921605460CAE79E
:1040100003B030BD1802002070B50E4E0C4631685A
:10402000054611B900F0BCF830602146284600F082
:10403000B7F8431C0AD0C41C24F00304A04207D0E4
:10404000211A284600F0ACF8013001D14FF0FF34BE
:10405000204670BD1C0200202DE9F041CD1C25F04A
:10406000030508350C2D38BF0C25002D074601DB54
:10407000A94205D90C233B6000263046BDE8F081FB
:104080002E4E00F09DF833681C4634BB2946384656
:10409000FFF7C2FF431C04464DD134682646002E6C
:1040A00040D123683146384604EB030800F078F825
:1040B00080453AD1216803356D1A25F0030508358E
:1040C0000C2D38BF0C2529463846FFF7A5FF0130D7
:1040D0002BD023682B4423600EE02268521B1ED491
:1040E0000B2A16D96119A342256018BF596063686D
:1040F00008BF316062514B60384604F10B0600F096
:1041000065F826F00706231DF21AB6D09B1BA350B4
:10411000B3E76268A3420CBF32605A60ECE7234603
:104120006468B2E734467668B9E70C233B603846EA
:1041300000F04CF8A1E72560DEE700BF1802002080
:104140002DE9F041804614460E4621B9BDE8F04104
:104150001146FFF781BF2AB9FFF712FF254628460F
:10416000BDE8F08100F038F88442074602D8B4EB8D
:10417000500F12D821464046FFF76EFF0546002833
:10418000EDD0BC422246314628BF3A46FFF7D0FE6A
:1041900031464046FFF7F4FEE1E73546DFE7000031
:1041A00038B5064D0023044608462B60FDF738FB62
:1041B000431C02D12B6803B1236038BD20020020CC
:1041C000014800F011B800BF24020020014800F0AF
:1041D0000CB800BF2402002051F8043C181F002B2B
:1041E000BCBF0B58C018704770477047F8B500BF88
:1041F000F8BC08BC9E467047F8B500BFF8BC08BCC8
:044200009E4670471F
:10420400424C5F44454255475F4D53473A427574AB
:10421400746F6E20697320707265737365642E2EDB
:104224002E20676F696E6720746F20424C206D6F7B
:1042340064650D0A00000000424C5F444542554746
:104244005F4D53473A427574746F6E206973206EE4
:104254006F7420707265737365642E2E2E206578DA
:1042640065637574696E672075736572206170701B
:104274000D0A0000424C5F44454255475F4D534789
:104284003A204352432072656365697665643A2037
:104294002523780943524320636F6D7075746564F8
:1042A4003A202523780D0A00424C5F444542554785
:1042B4005F4D53473A496E76616C696420636F6D54
:1042C4006D616E6420636F646520726563656976F1
:1042D40065642066726F6D20686F73740D0A000048
:1042E400424C5F44454255475F4D53473A626F6FB6
:1042F400746C6F616465725F68616E646C655F673E
:1043040065747665725F636D640D0A00424C5F44A8
:10431400454255475F4D53473A636865636B737510
:104324006D20737563636573732021210D0A00008A
:10433400424C5F44454255475F4D53473A424C5FB8
:10434400564552203A202564202523780D0A000082
:10435400424C5F44454255475F4D53473A63686555
:10436400636B73756D206661696C2021210D0A00F1
:10437400424C5F44454255475F4D53473A3A626F5A
:104384006F746C6F616465725F68616E646C655FA5
:1043940067657468656C705F636D640D0A00000086
:1043A400424C5F44454255475F4D53473A63686505
:1043B400636B73756D206661696C2021210A0000AE
:1043C400424C5F44454255475F4D53473A3A626F0A
:1043D4006F746C6F616465725F68616E646C655F55
:1043E4006765746369645F636D640D0A00000000AF
:1043F400424C5F44454255475F4D53473A4D435500
:104404002069643A202564202523780D0A000000E1
:10441400424C5F44454255475F4D53473A3A626FB9
:104424006F746C6F616465725F68616E646C655F04
:104434006765747264705F636D640D0A0000000048
:10444400424C5F44454255475F4D53473A524450AE
:10445400206C6576656C3A202564202523780D0A46
:1044640000000000424C5F44454255475F4D5347AE
:104474003A3A626F6F746C6F616465725F68616E03
:10448400646C655F676F5F636D640D0A0000000014
:10449400424C5F44454255475F4D53473A474F208E
:1044A400616464723A202523780D0A00424C5F440B
:1044B400454255475F4D53473A206A756D70696EA2
:1044C4006720746F20676F20616464726573732161
:1044D4000D0A0000424C5F44454255475F4D534727
:1044E4003A20474F206164647265737320696E7665
:1044F400616C6964210D0A00424C5F444542554792
:104504005F4D53473A3A626F6F746C6F61646572C2
:104514005F68616E646C655F666C6173685F657229
:104524006173655F636D640D0A000000424C5F4473
:10453400454255475F4D53473A496E697469616C0A
:1045440020736563746F723A2025642020206E6F97
:104554005F6F665F736563746F72733A2025640DD1
:104564000A000000424C5F44454255475F4D5347A3
:104574003A466C6173682065726173652073746177
:104584007475733A202523780D0A0000424C5F4469
:10459400454255475F4D53473A3A626F6F746C6FAB
:1045A400616465725F68616E646C655F6D656D5FA3
:1045B40077726974655F636D640D0A00424C5F44F1
:1045C400454255475F4D53473A206D656D207772DC
:1045D40069746520616464726573733A2025237875
:1045E4000D0A0000424C5F44454255475F4D534716
:1045F4003A2076616C6964206D656D207772697408
:104604006520616464726573730D0A00424C5F44F3
:10461400454255475F4D53473A5772697465207355
:1046240074617475733A202523780D0A0000000024
:10463400424C5F44454255475F4D53473A20696EAB
:1046440076616C6964206D656D207772697465208C
:10465400616464726573730D0A000000424C5F4428
:10466400454255475F4D53473A3A626F6F746C6FDA
:10467400616465725F68616E646C655F656E6469D0
:10468400735F72775F70726F746563745F636D6478
:104694000D0A0000424C5F44454255475F4D534765
:1046A4003A20666C61736820657261736520737467
:1046B400617475733A202523780A0000424C5F44E4
:1046C400454255475F4D53473A3A626F6F746C6F7A
:1046D400616465725F68616E646C655F6D656D5F72
:1046E400726561645F636D640D0A0000424C5F444F
:1046F400454255475F4D53473A206D656D207265BD
:10470400616420616464726573733A202523780DB3
:104714000A000000424C5F44454255475F4D5347F1
:104724003A2076616C6964206D656D207265616400
:1047340020616464726573730D0A0000424C5F4427
:10474400454255475F4D53473A526561642073743F
:10475400617475733A202523780D0A00424C5F4436
:10476400454255475F4D53473A20696E76616C69FF
:1047740064206D656D207265616420616464726596
:1047840073730D0A00000000424C5F4445425547D4
:104794005F4D53473A3A626F6F746C6F6164657230
:1047A4005F68616E646C655F726561645F736563A5
:1047B400746F725F7374617475735F636D640D0AF3
:1047C40000000000424C5F44454255475F4D53474B
:1047D4003A3A626F6F746C6F616465725F68616EA0
:1047E400646C655F6469735F72775F70726F746520
:1047F40063745F636D640D0A00000000424C5F4403
:10480400454255475F4D53473A626F6F746C6F6111
:104814006465725F6A756D705F746F5F75736572DE
:104824005F6170700D0A0000424C5F444542554779
:104834005F4D53473A4D53502076616C7565203A6D
:10484400202523780D0A0000424C5F444542554719
:104854005F4D53473A206170702072657365742010
:1048640068616E646C657220616464723A20252309
:10487400780D0A000000000000000000010203049B
:10488400060708090000000001020304232D302B51
:104894002000686C4C00656667454647003031323D
:1048A4003334353637383941424344454600303194
:1048B40032333435363738396162636465660000F3
:0848C400FCB9FF7F01000000B8
:0448CC00C50100081A
:0448D000A10100083A
:1048D4005152535455565758595A5B5C0024F400AE
:1048E40010000000010000001C0000200000000077
:1048F40000000000000000000000000000000000B4
:1049040000000000000000000000000000000000A3
:104914000000000000000000000000000000000093
:104924000000000000000000000000000000000083
:104934000000000000000000000000000000000073
:0C49440000000000000000000000000067
:04000005080018B126
:00000001FF
